:02000000922A42
:10000800FF00030E8301A6000A08A5008A018B1CC5
:1000180013288B1022080130031D0030A200250888
:0C0028008A00260E8300FF0E7F0E0900E8
:10003400710DF80DF90D7408F8027508031C750F9D
:10004400F902F00DF10D0F30FC00710DF80DF90DF2
:100054007408701C3328F8027508031C750FF90224
:100064003828F80775080318750FF907F00DF10D16
:10007400FC0B2728701844287408F807750803181F
:08008400750FF90700000800E8
:10008C00831203137408003A031D55287508003AAF
:10009C00031D5528FF30F0007F30F100AE2883128D
:1000AC000313FD01F901F801710870040319003400
:1000BC0071087506FA00FA1BFD09FB01F51F6B2888
:1000CC00F409F509F40A0319F50AF11F7228F0096D
:1000DC00F109F00A0319F10A71087504FA00FA1B08
:1000EC0087281A207B189A28FD1F0034F009F10983
:1000FC00F00A0319F10AF809F909F80A0319F90ABF
:10010C000034F51F9628F11B92287108F90070082D
:10011C00F800F101F0017A28F101F001F00A003445
:10012C00F109F009FB0A7728F80A0319F90A74088F
:10013C007802031D7A2875087902031D7A28F901C3
:10014C00F801F00A0319F10AF11F7A280000FF34B4
:02015C00080099
:10015E00BE280C30831203138800D028213088006B
:10016E00D0280A308800D02811308800D028831279
:10017E0003132908003A0319B0282908013A031974
:10018E00B5282908023A0319B8282908033A031991
:04019E00BB28080072
:1001A2000A3083120313F4000030F5002908F0002E
:1001B2002A08F10046207008AD007108AE000A302E
:1001C200F4000030F5002908F0002A08F10046206A
:1001D2007808F0007908F1007008AF007108B000EB
:1001E2000A30F4000030F5002B08F0002C08F10072
:1001F20046207008B1007108B2000A30F4000030E5
:10020200F5002B08F0002C08F10046207808F000D9
:100212007908F1007008B3007108B400B501B601A5
:1002220080303606F00080307002031D1A29323009
:10023200350203185429061186150430F1003308DB
:10024200F000710803192929F00D7010FF3E2329CF
:100252002F08700487000D30FC00FB30FD00FD0B01
:100262003029FC0B302900000000061586110430ED
:10027200F1003108F000710803194329F00D7010E4
:10028200FF3E3D292D08700487000D30FC00FB3035
:10029200FD00FD0B4A29FC0B4A2900000000B50AAB
:0802A2000319B60A1129080036
:0E02AA008312031324088A0023088200080030
:1002B80083120313A1018616861A6429061265297A
:1002C8000616081D85290230A900AF200330A700B3
:1002D8000030A8008030F000803028067002031D2E
:1002E80077292708003C031885292708A90028082A
:1002F800AA00AB01AC01D1200130A702031CA8035E
:100308006E290130A900AF200C30A7000030A800EA
:100318008030F000803028067002031D95292708D8
:10032800003C0318AD292208013A031D9C29202A04
:1003380003302707A90028080318013EAA00270848
:10034800AB002808AC00D1200130A702031CA80389
:100358008C290330A900AF200330A7000030A80083
:100368008030F000803028067002031DBD29270860
:10037800003C0318D2292208013A031DC429202A67
:100388002708A9002808AA002708AB002808AC00FD
:10039800D1200130A702031CA803B4290130A00012
:1003A800A901AF201430A7000030A8008030F00069
:1003B800803028067002031DE3292708003C031833
:1003C800FB292208013A031DEA29202A2708A90047
:1003D8002808AA0003302707AB0028080318013EA5
:1003E800AC00D1200130A702031CA803DA2902308F
:1003F800A900AF200330A7000030A8008030F0002B
:10040800803028067002031D0B2A2708003C0318B9
:10041800202A2208013A031D122A202A2708A900A7
:100428002808AA002708AB002808AC00D120013012
:0A043800A702031CA803022A080013
:1004420083120313200803192D2AA001061686120F
:100452008701A901AF20772A2108003A031D542AF7
:10046200061686120330A900AF200330A700003021
:10047200A8008030F000803028067002031D432A55
:100482002708003C0318512AA901AA012708AB003A
:100492002808AC00D1200130A702031CA8033A2A85
:1004A200A901AF20772A061286160230A900AF20D2
:1004B2000330A7000030A8008030F000803028060A
:1004C2007002031D662A2708003C0318742A2708B5
:1004D200A9002808AA00AB01AC01D1200130A70273
:1004E200031CA8035D2A0130A900AF200611861162
:1004F20021080130031D0030A100861C852A220834
:0A050200013A031D852A7E2A080035
:10050C0055218A110A128000840AA30A0319A40A2D
:08051C00F003031D862A08000C
:1005240083120313A001A101A201073083169F00C7
:1005340003308600870183128701831688018312A2
:100544008801831601130B168B1783122208003AB5
:10055400031DAE2A5C21B32A2208013A031DB32AE3
:060564002122A72AB42A9F
:02400E004A2F37
:00000001FF
